{
  "_format": "hh-sol-artifact-1",
  "contractName": "ScorePong",
  "sourceName": "contracts/ScorePong.sol",
  "abi": [
    {
      "anonymous": false,
      "inputs": [
        {
          "indexed": true,
          "internalType": "uint256",
          "name": "userId",
          "type": "uint256"
        },
        {
          "indexed": false,
          "internalType": "uint256",
          "name": "scoreId",
          "type": "uint256"
        },
        {
          "indexed": false,
          "internalType": "string",
          "name": "date",
          "type": "string"
        },
        {
          "indexed": false,
          "internalType": "bool",
          "name": "won",
          "type": "bool"
        },
        {
          "indexed": false,
          "internalType": "string",
          "name": "guest_name",
          "type": "string"
        }
      ],
      "name": "ScoreAdded",
      "type": "event"
    },
    {
      "inputs": [
        {
          "internalType": "uint256",
          "name": "userId",
          "type": "uint256"
        }
      ],
      "name": "getUserScores",
      "outputs": [
        {
          "components": [
            {
              "internalType": "uint256",
              "name": "id",
              "type": "uint256"
            },
            {
              "internalType": "string",
              "name": "date",
              "type": "string"
            },
            {
              "internalType": "bool",
              "name": "won",
              "type": "bool"
            },
            {
              "internalType": "string",
              "name": "guest_name",
              "type": "string"
            }
          ],
          "internalType": "struct ScorePong.GameScore[]",
          "name": "",
          "type": "tuple[]"
        }
      ],
      "stateMutability": "view",
      "type": "function"
    },
    {
      "inputs": [
        {
          "internalType": "uint256",
          "name": "userId",
          "type": "uint256"
        },
        {
          "internalType": "string",
          "name": "_date",
          "type": "string"
        },
        {
          "internalType": "bool",
          "name": "_won",
          "type": "bool"
        },
        {
          "internalType": "string",
          "name": "_guest_name",
          "type": "string"
        }
      ],
      "name": "putScore",
      "outputs": [],
      "stateMutability": "nonpayable",
      "type": "function"
    },
    {
      "inputs": [],
      "name": "scoreCount",
      "outputs": [
        {
          "internalType": "uint256",
          "name": "",
          "type": "uint256"
        }
      ],
      "stateMutability": "view",
      "type": "function"
    },
    {
      "inputs": [
        {
          "internalType": "uint256",
          "name": "",
          "type": "uint256"
        },
        {
          "internalType": "uint256",
          "name": "",
          "type": "uint256"
        }
      ],
      "name": "userScores",
      "outputs": [
        {
          "internalType": "uint256",
          "name": "id",
          "type": "uint256"
        },
        {
          "internalType": "string",
          "name": "date",
          "type": "string"
        },
        {
          "internalType": "bool",
          "name": "won",
          "type": "bool"
        },
        {
          "internalType": "string",
          "name": "guest_name",
          "type": "string"
        }
      ],
      "stateMutability": "view",
      "type": "function"
    }
  ],
  "bytecode": "0x6080604052348015600f57600080fd5b50610e548061001f6000396000f3fe608060405234801561001057600080fd5b506004361061004c5760003560e01c806352e1440f146100515780636629aa6c1461006d578063a21511431461009d578063e2d24827146100d0575b600080fd5b61006b600480360381019061006691906106fc565b6100ee565b005b6100876004803603810190610082919061079b565b61020a565b6040516100949190610991565b60405180910390f35b6100b760048036038101906100b291906109b3565b6103c4565b6040516100c79493929190610a5b565b60405180910390f35b6100d861052e565b6040516100e59190610aae565b60405180910390f35b6001600081548092919061010190610af8565b9190505550600060405180608001604052806001548152602001858152602001841515815260200183815250905060008086815260200190815260200160002081908060018154018082558091505060019003906000526020600020906004020160009091909190915060008201518160000155602082015181600101908161018a9190610d4c565b5060408201518160020160006101000a81548160ff02191690831515021790555060608201518160030190816101c09190610d4c565b505050847f7a1e8e7adf67451de16a041c386f49ab559d110891e85faa31e2b29ee838290a6001548686866040516101fb9493929190610a5b565b60405180910390a25050505050565b6060600080838152602001908152602001600020805480602002602001604051908101604052809291908181526020016000905b828210156103b957838290600052602060002090600402016040518060800160405290816000820154815260200160018201805461027b90610b6f565b80601f01602080910402602001604051908101604052809291908181526020018280546102a790610b6f565b80156102f45780601f106102c9576101008083540402835291602001916102f4565b820191906000526020600020905b8154815290600101906020018083116102d757829003601f168201915b505050505081526020016002820160009054906101000a900460ff1615151515815260200160038201805461032890610b6f565b80601f016020809104026020016040519081016040528092919081815260200182805461035490610b6f565b80156103a15780601f10610376576101008083540402835291602001916103a1565b820191906000526020600020905b81548152906001019060200180831161038457829003601f168201915b5050505050815250508152602001906001019061023e565b505050509050919050565b600060205281600052604060002081815481106103e057600080fd5b90600052602060002090600402016000915091505080600001549080600101805461040a90610b6f565b80601f016020809104026020016040519081016040528092919081815260200182805461043690610b6f565b80156104835780601f1061045857610100808354040283529160200191610483565b820191906000526020600020905b81548152906001019060200180831161046657829003601f168201915b5050505050908060020160009054906101000a900460ff16908060030180546104ab90610b6f565b80601f01602080910402602001604051908101604052809291908181526020018280546104d790610b6f565b80156105245780601f106104f957610100808354040283529160200191610524565b820191906000526020600020905b81548152906001019060200180831161050757829003601f168201915b5050505050905084565b60015481565b6000604051905090565b600080fd5b600080fd5b6000819050919050565b61055b81610548565b811461056657600080fd5b50565b60008135905061057881610552565b92915050565b600080fd5b600080fd5b6000601f19601f8301169050919050565b7f4e487b7100000000000000000000000000000000000000000000000000000000600052604160045260246000fd5b6105d182610588565b810181811067ffffffffffffffff821117156105f0576105ef610599565b5b80604052505050565b6000610603610534565b905061060f82826105c8565b919050565b600067ffffffffffffffff82111561062f5761062e610599565b5b61063882610588565b9050602081019050919050565b82818337600083830152505050565b600061066761066284610614565b6105f9565b90508281526020810184848401111561068357610682610583565b5b61068e848285610645565b509392505050565b600082601f8301126106ab576106aa61057e565b5b81356106bb848260208601610654565b91505092915050565b60008115159050919050565b6106d9816106c4565b81146106e457600080fd5b50565b6000813590506106f6816106d0565b92915050565b600080600080608085870312156107165761071561053e565b5b600061072487828801610569565b945050602085013567ffffffffffffffff81111561074557610744610543565b5b61075187828801610696565b9350506040610762878288016106e7565b925050606085013567ffffffffffffffff81111561078357610782610543565b5b61078f87828801610696565b91505092959194509250565b6000602082840312156107b1576107b061053e565b5b60006107bf84828501610569565b91505092915050565b600081519050919050565b600082825260208201905092915050565b6000819050602082019050919050565b6107fd81610548565b82525050565b600081519050919050565b600082825260208201905092915050565b60005b8381101561083d578082015181840152602081019050610822565b60008484015250505050565b600061085482610803565b61085e818561080e565b935061086e81856020860161081f565b61087781610588565b840191505092915050565b61088b816106c4565b82525050565b60006080830160008301516108a960008601826107f4565b50602083015184820360208601526108c18282610849565b91505060408301516108d66040860182610882565b50606083015184820360608601526108ee8282610849565b9150508091505092915050565b60006109078383610891565b905092915050565b6000602082019050919050565b6000610927826107c8565b61093181856107d3565b935083602082028501610943856107e4565b8060005b8581101561097f578484038952815161096085826108fb565b945061096b8361090f565b925060208a01995050600181019050610947565b50829750879550505050505092915050565b600060208201905081810360008301526109ab818461091c565b905092915050565b600080604083850312156109ca576109c961053e565b5b60006109d885828601610569565b92505060206109e985828601610569565b9150509250929050565b6109fc81610548565b82525050565b600082825260208201905092915050565b6000610a1e82610803565b610a288185610a02565b9350610a3881856020860161081f565b610a4181610588565b840191505092915050565b610a55816106c4565b82525050565b6000608082019050610a7060008301876109f3565b8181036020830152610a828186610a13565b9050610a916040830185610a4c565b8181036060830152610aa38184610a13565b905095945050505050565b6000602082019050610ac360008301846109f3565b92915050565b7f4e487b7100000000000000000000000000000000000000000000000000000000600052601160045260246000fd5b6000610b0382610548565b91507fffffffffffffffffffffffffffffffffffffffffffffffffffffffffffffffff8203610b3557610b34610ac9565b5b600182019050919050565b7f4e487b7100000000000000000000000000000000000000000000000000000000600052602260045260246000fd5b60006002820490506001821680610b8757607f821691505b602082108103610b9a57610b99610b40565b5b50919050565b60008190508160005260206000209050919050565b60006020601f8301049050919050565b600082821b905092915050565b600060088302610c027fffffffffffffffffffffffffffffffffffffffffffffffffffffffffffffffff82610bc5565b610c0c8683610bc5565b95508019841693508086168417925050509392505050565b6000819050919050565b6000610c49610c44610c3f84610548565b610c24565b610548565b9050919050565b6000819050919050565b610c6383610c2e565b610c77610c6f82610c50565b848454610bd2565b825550505050565b600090565b610c8c610c7f565b610c97818484610c5a565b505050565b5b81811015610cbb57610cb0600082610c84565b600181019050610c9d565b5050565b601f821115610d0057610cd181610ba0565b610cda84610bb5565b81016020851015610ce9578190505b610cfd610cf585610bb5565b830182610c9c565b50505b505050565b600082821c905092915050565b6000610d2360001984600802610d05565b1980831691505092915050565b6000610d3c8383610d12565b9150826002028217905092915050565b610d5582610803565b67ffffffffffffffff811115610d6e57610d6d610599565b5b610d788254610b6f565b610d83828285610cbf565b600060209050601f831160018114610db65760008415610da4578287015190505b610dae8582610d30565b865550610e16565b601f198416610dc486610ba0565b60005b82811015610dec57848901518255600182019150602085019450602081019050610dc7565b86831015610e095784890151610e05601f891682610d12565b8355505b6001600288020188555050505b50505050505056fea26469706673582212208bbe1a568f3f129da55a2cc2a79cbf955e57f63e7c748e63f7fef36a4dbb06ec64736f6c634300081c0033",
  "linkReferences": {},
  "deployedLinkReferences": {}
}